{
  "_format": "hh-sol-artifact-1",
  "contractName": "Cultiv8Agent",
  "sourceName": "contracts/Cultiv8Agent.sol",
  "abi": [
    {
      "inputs": [],
      "stateMutability": "nonpayable",
      "type": "constructor"
    },
    {
      "inputs": [
        {
          "internalType": "address",
          "name": "owner",
          "type": "address"
        }
      ],
      "name": "OwnableInvalidOwner",
      "type": "error"
    },
    {
      "inputs": [
        {
          "internalType": "address",
          "name": "account",
          "type": "address"
        }
      ],
      "name": "OwnableUnauthorizedAccount",
      "type": "error"
    },
    {
      "inputs": [],
      "name": "ReentrancyGuardReentrantCall",
      "type": "error"
    },
    {
      "anonymous": false,
      "inputs": [
        {
          "indexed": true,
          "internalType": "address",
          "name": "user",
          "type": "address"
        },
        {
          "indexed": true,
          "internalType": "address",
          "name": "agent",
          "type": "address"
        },
        {
          "indexed": false,
          "internalType": "uint256",
          "name": "maxAmountPerTx",
          "type": "uint256"
        },
        {
          "indexed": false,
          "internalType": "uint256",
          "name": "dailyLimit",
          "type": "uint256"
        }
      ],
      "name": "AgentAuthorized",
      "type": "event"
    },
    {
      "anonymous": false,
      "inputs": [
        {
          "indexed": true,
          "internalType": "address",
          "name": "user",
          "type": "address"
        },
        {
          "indexed": true,
          "internalType": "address",
          "name": "protocol",
          "type": "address"
        },
        {
          "indexed": false,
          "internalType": "uint256",
          "name": "amount",
          "type": "uint256"
        },
        {
          "indexed": false,
          "internalType": "bytes32",
          "name": "strategyHash",
          "type": "bytes32"
        },
        {
          "indexed": false,
          "internalType": "bool",
          "name": "success",
          "type": "bool"
        }
      ],
      "name": "AgentExecuted",
      "type": "event"
    },
    {
      "anonymous": false,
      "inputs": [
        {
          "indexed": true,
          "internalType": "address",
          "name": "user",
          "type": "address"
        },
        {
          "indexed": true,
          "internalType": "address",
          "name": "agent",
          "type": "address"
        }
      ],
      "name": "AgentRevoked",
      "type": "event"
    },
    {
      "anonymous": false,
      "inputs": [
        {
          "indexed": true,
          "internalType": "address",
          "name": "previousOwner",
          "type": "address"
        },
        {
          "indexed": true,
          "internalType": "address",
          "name": "newOwner",
          "type": "address"
        }
      ],
      "name": "OwnershipTransferred",
      "type": "event"
    },
    {
      "anonymous": false,
      "inputs": [
        {
          "indexed": true,
          "internalType": "address",
          "name": "protocol",
          "type": "address"
        },
        {
          "indexed": false,
          "internalType": "bool",
          "name": "status",
          "type": "bool"
        }
      ],
      "name": "ProtocolWhitelisted",
      "type": "event"
    },
    {
      "inputs": [],
      "name": "MAX_AUTHORIZATION",
      "outputs": [
        {
          "internalType": "uint256",
          "name": "",
          "type": "uint256"
        }
      ],
      "stateMutability": "view",
      "type": "function"
    },
    {
      "inputs": [],
      "name": "MIN_AUTHORIZATION",
      "outputs": [
        {
          "internalType": "uint256",
          "name": "",
          "type": "uint256"
        }
      ],
      "stateMutability": "view",
      "type": "function"
    },
    {
      "inputs": [
        {
          "internalType": "address",
          "name": "",
          "type": "address"
        }
      ],
      "name": "authorizations",
      "outputs": [
        {
          "internalType": "address",
          "name": "agent",
          "type": "address"
        },
        {
          "internalType": "uint256",
          "name": "maxAmountPerTx",
          "type": "uint256"
        },
        {
          "internalType": "uint256",
          "name": "dailyLimit",
          "type": "uint256"
        },
        {
          "internalType": "uint256",
          "name": "dailySpent",
          "type": "uint256"
        },
        {
          "internalType": "uint256",
          "name": "lastResetDay",
          "type": "uint256"
        },
        {
          "internalType": "bool",
          "name": "active",
          "type": "bool"
        },
        {
          "internalType": "uint256",
          "name": "authorizedAt",
          "type": "uint256"
        }
      ],
      "stateMutability": "view",
      "type": "function"
    },
    {
      "inputs": [
        {
          "internalType": "address",
          "name": "agent",
          "type": "address"
        },
        {
          "internalType": "uint256",
          "name": "maxAmountPerTx",
          "type": "uint256"
        },
        {
          "internalType": "uint256",
          "name": "dailyLimit",
          "type": "uint256"
        }
      ],
      "name": "authorizeAgent",
      "outputs": [],
      "stateMutability": "nonpayable",
      "type": "function"
    },
    {
      "inputs": [
        {
          "internalType": "address",
          "name": "user",
          "type": "address"
        },
        {
          "internalType": "uint256",
          "name": "amount",
          "type": "uint256"
        }
      ],
      "name": "canExecute",
      "outputs": [
        {
          "internalType": "bool",
          "name": "",
          "type": "bool"
        }
      ],
      "stateMutability": "view",
      "type": "function"
    },
    {
      "inputs": [
        {
          "internalType": "address",
          "name": "user",
          "type": "address"
        },
        {
          "internalType": "address",
          "name": "protocol",
          "type": "address"
        },
        {
          "internalType": "bytes",
          "name": "strategyData",
          "type": "bytes"
        },
        {
          "internalType": "uint256",
          "name": "amount",
          "type": "uint256"
        }
      ],
      "name": "executeStrategy",
      "outputs": [
        {
          "internalType": "bool",
          "name": "success",
          "type": "bool"
        }
      ],
      "stateMutability": "nonpayable",
      "type": "function"
    },
    {
      "inputs": [
        {
          "internalType": "uint256",
          "name": "",
          "type": "uint256"
        }
      ],
      "name": "executionHistory",
      "outputs": [
        {
          "internalType": "address",
          "name": "user",
          "type": "address"
        },
        {
          "internalType": "address",
          "name": "protocol",
          "type": "address"
        },
        {
          "internalType": "uint256",
          "name": "amount",
          "type": "uint256"
        },
        {
          "internalType": "bytes32",
          "name": "strategyHash",
          "type": "bytes32"
        },
        {
          "internalType": "uint256",
          "name": "timestamp",
          "type": "uint256"
        },
        {
          "internalType": "bool",
          "name": "success",
          "type": "bool"
        }
      ],
      "stateMutability": "view",
      "type": "function"
    },
    {
      "inputs": [
        {
          "internalType": "address",
          "name": "user",
          "type": "address"
        }
      ],
      "name": "getAuthorization",
      "outputs": [
        {
          "components": [
            {
              "internalType": "address",
              "name": "agent",
              "type": "address"
            },
            {
              "internalType": "uint256",
              "name": "maxAmountPerTx",
              "type": "uint256"
            },
            {
              "internalType": "uint256",
              "name": "dailyLimit",
              "type": "uint256"
            },
            {
              "internalType": "uint256",
              "name": "dailySpent",
              "type": "uint256"
            },
            {
              "internalType": "uint256",
              "name": "lastResetDay",
              "type": "uint256"
            },
            {
              "internalType": "bool",
              "name": "active",
              "type": "bool"
            },
            {
              "internalType": "uint256",
              "name": "authorizedAt",
              "type": "uint256"
            }
          ],
          "internalType": "struct IEIP8004Agent.AgentAuthorization",
          "name": "",
          "type": "tuple"
        }
      ],
      "stateMutability": "view",
      "type": "function"
    },
    {
      "inputs": [],
      "name": "getExecutionHistoryLength",
      "outputs": [
        {
          "internalType": "uint256",
          "name": "",
          "type": "uint256"
        }
      ],
      "stateMutability": "view",
      "type": "function"
    },
    {
      "inputs": [
        {
          "internalType": "address",
          "name": "user",
          "type": "address"
        }
      ],
      "name": "getRemainingDailyLimit",
      "outputs": [
        {
          "internalType": "uint256",
          "name": "remaining",
          "type": "uint256"
        }
      ],
      "stateMutability": "view",
      "type": "function"
    },
    {
      "inputs": [],
      "name": "owner",
      "outputs": [
        {
          "internalType": "address",
          "name": "",
          "type": "address"
        }
      ],
      "stateMutability": "view",
      "type": "function"
    },
    {
      "inputs": [],
      "name": "paused",
      "outputs": [
        {
          "internalType": "bool",
          "name": "",
          "type": "bool"
        }
      ],
      "stateMutability": "view",
      "type": "function"
    },
    {
      "inputs": [],
      "name": "renounceOwnership",
      "outputs": [],
      "stateMutability": "nonpayable",
      "type": "function"
    },
    {
      "inputs": [],
      "name": "revokeAgent",
      "outputs": [],
      "stateMutability": "nonpayable",
      "type": "function"
    },
    {
      "inputs": [
        {
          "internalType": "bool",
          "name": "_paused",
          "type": "bool"
        }
      ],
      "name": "setPaused",
      "outputs": [],
      "stateMutability": "nonpayable",
      "type": "function"
    },
    {
      "inputs": [
        {
          "internalType": "address",
          "name": "protocol",
          "type": "address"
        },
        {
          "internalType": "bool",
          "name": "status",
          "type": "bool"
        }
      ],
      "name": "setProtocolWhitelist",
      "outputs": [],
      "stateMutability": "nonpayable",
      "type": "function"
    },
    {
      "inputs": [
        {
          "internalType": "address",
          "name": "newOwner",
          "type": "address"
        }
      ],
      "name": "transferOwnership",
      "outputs": [],
      "stateMutability": "nonpayable",
      "type": "function"
    },
    {
      "inputs": [
        {
          "internalType": "uint256",
          "name": "maxAmountPerTx",
          "type": "uint256"
        },
        {
          "internalType": "uint256",
          "name": "dailyLimit",
          "type": "uint256"
        }
      ],
      "name": "updateLimits",
      "outputs": [],
      "stateMutability": "nonpayable",
      "type": "function"
    },
    {
      "inputs": [
        {
          "internalType": "address",
          "name": "",
          "type": "address"
        }
      ],
      "name": "whitelistedProtocols",
      "outputs": [
        {
          "internalType": "bool",
          "name": "",
          "type": "bool"
        }
      ],
      "stateMutability": "view",
      "type": "function"
    }
  ],
  "bytecode": "0x608060405234801561001057600080fd5b50338061003757604051631e4fbdf760e01b81526000600482015260240160405180910390fd5b6100408161004a565b506001805561009a565b600080546001600160a01b038381166001600160a01b0319831681178455604051919092169283917f8be0079c531659141344cd1fd0a4f28419497f9722a3daafe3b4186f6b6457e09190a35050565b61149e806100a96000396000f3fe608060405234801561001057600080fd5b50600436106101215760003560e01c80637256b15b116100ad578063a2240e1911610071578063a2240e1914610361578063ec37d25914610374578063f2fde38b14610387578063fc11a21f1461039a578063fcb713e4146103ad57600080fd5b80637256b15b146102995780637961803e146102ac57806384361c07146102b45780638da5cb5b146102d75780639f64bd48146102f257600080fd5b80633a13e1af116100f45780633a13e1af1461017857806341a8762b146102145780634b0f43fd146102615780635c975abb14610284578063715018a61461029157600080fd5b806316c38b3c146101265780632a6837951461013b5780632c00e6131461014e57806333dac8581461016c575b600080fd5b610139610134366004611245565b6103b5565b005b61013961014936600461127e565b6103d0565b6101596305f5e10081565b6040519081526020015b60405180910390f35b61015964e8d4a5100081565b6101d36101863660046112b1565b600260208190526000918252604090912080546001820154928201546003830154600484015460058501546006909501546001600160a01b03909416959492939192909160ff9091169087565b604080516001600160a01b03909816885260208801969096529486019390935260608501919091526080840152151560a083015260c082015260e001610163565b6102276102223660046112cc565b610492565b604080516001600160a01b0397881681529690951660208701529385019290925260608401526080830152151560a082015260c001610163565b61027461026f3660046112e5565b6104e8565b6040519015158152602001610163565b6005546102749060ff1681565b61013961057e565b6102746102a736600461130f565b610592565b610139610acb565b6102746102c23660046112b1565b60046020526000908152604090205460ff1681565b6000546040516001600160a01b039091168152602001610163565b6103056103003660046112b1565b610b69565b604051610163919081516001600160a01b031681526020808301519082015260408083015190820152606080830151908201526080808301519082015260a08281015115159082015260c0918201519181019190915260e00190565b61013961036f3660046113a5565b610c27565b6101596103823660046112b1565b610e0a565b6101396103953660046112b1565b610e86565b6101396103a83660046113c7565b610ec4565b600354610159565b6103bd611189565b6005805460ff1916911515919091179055565b6103d8611189565b6001600160a01b0382166104335760405162461bcd60e51b815260206004820152601860248201527f496e76616c69642070726f746f636f6c2061646472657373000000000000000060448201526064015b60405180910390fd5b6001600160a01b038216600081815260046020908152604091829020805460ff191685151590811790915591519182527f60d00706f06f6d09b5d1016c03123544f47b263dbf449d0a2713b17adad05453910160405180910390a25050565b600381815481106104a257600080fd5b60009182526020909120600690910201805460018201546002830154600384015460048501546005909501546001600160a01b0394851696509390921693909260ff1686565b6001600160a01b038216600090815260026020526040812060055460ff16806105165750600581015460ff16155b806105245750806001015483115b15610533576000915050610578565b60006105426201518042611410565b905060008260040154821161055b57826003015461055e565b60005b60028401549091506105708683611432565b111593505050505b92915050565b610586611189565b61059060006111b6565b565b600061059c611206565b60055460ff16156105e45760405162461bcd60e51b815260206004820152601260248201527110dbdb9d1c9858dd081a5cc81c185d5cd95960721b604482015260640161042a565b6001600160a01b0386166000908152600260205260409020600581015460ff166106475760405162461bcd60e51b81526020600482015260146024820152731059d95b9d081b9bdd08185d5d1a1bdc9a5e995960621b604482015260640161042a565b80546001600160a01b031633146106955760405162461bcd60e51b8152602060048201526012602482015271155b985d5d1a1bdc9a5e9959081859d95b9d60721b604482015260640161042a565b600083116106e55760405162461bcd60e51b815260206004820152601760248201527f416d6f756e74206d75737420626520706f736974697665000000000000000000604482015260640161042a565b80600101548311156107395760405162461bcd60e51b815260206004820152601d60248201527f45786365656473207065722d7472616e73616374696f6e206c696d6974000000604482015260640161042a565b6001600160a01b03861660009081526004602052604090205460ff166107a15760405162461bcd60e51b815260206004820152601860248201527f50726f746f636f6c206e6f742077686974656c69737465640000000000000000604482015260640161042a565b60006107b06201518042611410565b905081600401548111156107cd5760006003830155600482018190555b81600201548483600301546107e29190611432565b11156108265760405162461bcd60e51b8152602060048201526013602482015272115e18d959591cc819185a5b1e481b1a5b5a5d606a1b604482015260640161042a565b8382600301600082825461083a9190611432565b90915550506040516000906108529088908890611445565b60405180910390209050876001600160a01b03168787604051610876929190611445565b6000604051808303816000865af19150503d80600081146108b3576040519150601f19603f3d011682016040523d82523d6000602084013e6108b8565b606091505b50506040805160c0810182526001600160a01b038c81168083528c821660208085018281528587018d815260608088018b81524260808a019081528b151560a08b01818152600380546001810182556000919091529b516006909c027fc2575a0e9e593c00f959f8c92f12db2869c3395a3b0502d05e2516446f71f85b810180549d8d166001600160a01b03199e8f1617905596517fc2575a0e9e593c00f959f8c92f12db2869c3395a3b0502d05e2516446f71f85c8801805491909c169c169b909b1790995592517fc2575a0e9e593c00f959f8c92f12db2869c3395a3b0502d05e2516446f71f85d850155517fc2575a0e9e593c00f959f8c92f12db2869c3395a3b0502d05e2516446f71f85e84015590517fc2575a0e9e593c00f959f8c92f12db2869c3395a3b0502d05e2516446f71f85f83015595517fc2575a0e9e593c00f959f8c92f12db2869c3395a3b0502d05e2516446f71f860909101805491151560ff1990921691909117905585518c81529081018890529485019290925293975092917f296e005ff560660c42b3e459626aa97941a3738d2c443179c7fac4929c1feef0910160405180910390a383610ab65760405162461bcd60e51b815260206004820152601960248201527f537472617465677920657865637574696f6e206661696c656400000000000000604482015260640161042a565b505050610ac260018055565b95945050505050565b336000908152600260205260409020600581015460ff16610b215760405162461bcd60e51b815260206004820152601060248201526f4167656e74206e6f742061637469766560801b604482015260640161042a565b60058101805460ff1916905580546040516001600160a01b039091169033907f3855bc4f5f7ba28049e0abd622b6ffbbf63cb46e6b09593b9213c9fd38db5cad90600090a350565b610bb46040518060e0016040528060006001600160a01b0316815260200160008152602001600081526020016000815260200160008152602001600015158152602001600081525090565b506001600160a01b03908116600090815260026020818152604092839020835160e0810185528154909516855260018101549185019190915290810154918301919091526003810154606083015260048101546080830152600581015460ff16151560a08301526006015460c082015290565b336000908152600260205260409020600581015460ff16610c815760405162461bcd60e51b81526020600482015260146024820152731059d95b9d081b9bdd08185d5d1a1bdc9a5e995960621b604482015260640161042a565b6305f5e100831015610cc85760405162461bcd60e51b815260206004820152601060248201526f105b5bdd5b9d081d1bdbc81cdb585b1b60821b604482015260640161042a565b64e8d4a51000831115610d105760405162461bcd60e51b815260206004820152601060248201526f416d6f756e7420746f6f206c6172676560801b604482015260640161042a565b82821015610d605760405162461bcd60e51b815260206004820181905260248201527f4461696c79206c696d6974206d757374203e3d207065722d7478206c696d6974604482015260640161042a565b64e8d4a51000821115610dad5760405162461bcd60e51b81526020600482015260156024820152744461696c79206c696d697420746f6f206c6172676560581b604482015260640161042a565b6001810183905560028101829055805460408051858152602081018590526001600160a01b039092169133917f781d73e0a6b21f47644e23d51c7dfbc0f313927f068ee0b322df9da63471cbe691015b60405180910390a3505050565b6001600160a01b0381166000908152600260205260408120600581015460ff16610e375750600092915050565b6000610e466201518042611410565b9050600082600401548211610e5f578260030154610e62565b60005b905080836002015411610e76576000610ac2565b808360020154610ac29190611455565b610e8e611189565b6001600160a01b038116610eb857604051631e4fbdf760e01b81526000600482015260240161042a565b610ec1816111b6565b50565b60055460ff1615610f0c5760405162461bcd60e51b815260206004820152601260248201527110dbdb9d1c9858dd081a5cc81c185d5cd95960721b604482015260640161042a565b6001600160a01b038316610f5a5760405162461bcd60e51b8152602060048201526015602482015274496e76616c6964206167656e74206164647265737360581b604482015260640161042a565b6305f5e100821015610fa15760405162461bcd60e51b815260206004820152601060248201526f105b5bdd5b9d081d1bdbc81cdb585b1b60821b604482015260640161042a565b64e8d4a51000821115610fe95760405162461bcd60e51b815260206004820152601060248201526f416d6f756e7420746f6f206c6172676560801b604482015260640161042a565b818110156110395760405162461bcd60e51b815260206004820181905260248201527f4461696c79206c696d6974206d757374203e3d207065722d7478206c696d6974604482015260640161042a565b64e8d4a510008111156110865760405162461bcd60e51b81526020600482015260156024820152744461696c79206c696d697420746f6f206c6172676560581b604482015260640161042a565b6040518060e00160405280846001600160a01b031681526020018381526020018281526020016000815260200162015180426110c29190611410565b81526001602080830182905242604093840152336000818152600280845290859020865181546001600160a01b0319166001600160a01b0391821617825587850151958201959095558686015191810191909155606086015160038201556080860151600482015560a086015160058201805460ff191691151591909117905560c090950151600690950194909455825186815290810185905290861692917f781d73e0a6b21f47644e23d51c7dfbc0f313927f068ee0b322df9da63471cbe69101610dfd565b6000546001600160a01b031633146105905760405163118cdaa760e01b815233600482015260240161042a565b600080546001600160a01b038381166001600160a01b0319831681178455604051919092169283917f8be0079c531659141344cd1fd0a4f28419497f9722a3daafe3b4186f6b6457e09190a35050565b60026001540361122957604051633ee5aeb560e01b815260040160405180910390fd5b6002600155565b8035801515811461124057600080fd5b919050565b60006020828403121561125757600080fd5b61126082611230565b9392505050565b80356001600160a01b038116811461124057600080fd5b6000806040838503121561129157600080fd5b61129a83611267565b91506112a860208401611230565b90509250929050565b6000602082840312156112c357600080fd5b61126082611267565b6000602082840312156112de57600080fd5b5035919050565b600080604083850312156112f857600080fd5b61130183611267565b946020939093013593505050565b60008060008060006080868803121561132757600080fd5b61133086611267565b945061133e60208701611267565b9350604086013567ffffffffffffffff8082111561135b57600080fd5b818801915088601f83011261136f57600080fd5b81358181111561137e57600080fd5b89602082850101111561139057600080fd5b96999598505060200195606001359392505050565b600080604083850312156113b857600080fd5b50508035926020909101359150565b6000806000606084860312156113dc57600080fd5b6113e584611267565b95602085013595506040909401359392505050565b634e487b7160e01b600052601160045260246000fd5b60008261142d57634e487b7160e01b600052601260045260246000fd5b500490565b80820180821115610578576105786113fa565b8183823760009101908152919050565b81810381811115610578576105786113fa56fea2646970667358221220b3f7153c07011defcc840cdf86750bbbe4657bdc49e0a98b501d0ab947b88a1464736f6c63430008140033",
  "linkReferences": {},
  "deployedLinkReferences": {}
}