{
  "_format": "hh-sol-artifact-1",
  "contractName": "AgentVault",
  "sourceName": "contracts/AgentVault.sol",
  "abi": [
    {
      "inputs": [
        {
          "internalType": "address",
          "name": "_usdc",
          "type": "address"
        },
        {
          "internalType": "address",
          "name": "_cultiv8Agent",
          "type": "address"
        }
      ],
      "stateMutability": "nonpayable",
      "type": "constructor"
    },
    {
      "inputs": [
        {
          "internalType": "address",
          "name": "owner",
          "type": "address"
        }
      ],
      "name": "OwnableInvalidOwner",
      "type": "error"
    },
    {
      "inputs": [
        {
          "internalType": "address",
          "name": "account",
          "type": "address"
        }
      ],
      "name": "OwnableUnauthorizedAccount",
      "type": "error"
    },
    {
      "inputs": [],
      "name": "ReentrancyGuardReentrantCall",
      "type": "error"
    },
    {
      "inputs": [
        {
          "internalType": "address",
          "name": "token",
          "type": "address"
        }
      ],
      "name": "SafeERC20FailedOperation",
      "type": "error"
    },
    {
      "anonymous": false,
      "inputs": [
        {
          "indexed": true,
          "internalType": "address",
          "name": "user",
          "type": "address"
        },
        {
          "indexed": true,
          "internalType": "address",
          "name": "target",
          "type": "address"
        },
        {
          "indexed": false,
          "internalType": "bytes",
          "name": "data",
          "type": "bytes"
        }
      ],
      "name": "Delegated",
      "type": "event"
    },
    {
      "anonymous": false,
      "inputs": [
        {
          "indexed": true,
          "internalType": "address",
          "name": "user",
          "type": "address"
        },
        {
          "indexed": false,
          "internalType": "uint256",
          "name": "amount",
          "type": "uint256"
        }
      ],
      "name": "Deposited",
      "type": "event"
    },
    {
      "anonymous": false,
      "inputs": [
        {
          "indexed": false,
          "internalType": "bool",
          "name": "status",
          "type": "bool"
        }
      ],
      "name": "EmergencyPaused",
      "type": "event"
    },
    {
      "anonymous": false,
      "inputs": [
        {
          "indexed": true,
          "internalType": "address",
          "name": "previousOwner",
          "type": "address"
        },
        {
          "indexed": true,
          "internalType": "address",
          "name": "newOwner",
          "type": "address"
        }
      ],
      "name": "OwnershipTransferred",
      "type": "event"
    },
    {
      "anonymous": false,
      "inputs": [
        {
          "indexed": true,
          "internalType": "address",
          "name": "user",
          "type": "address"
        },
        {
          "indexed": false,
          "internalType": "uint256",
          "name": "amount",
          "type": "uint256"
        }
      ],
      "name": "Withdrawn",
      "type": "event"
    },
    {
      "inputs": [],
      "name": "MIN_DEPOSIT",
      "outputs": [
        {
          "internalType": "uint256",
          "name": "",
          "type": "uint256"
        }
      ],
      "stateMutability": "view",
      "type": "function"
    },
    {
      "inputs": [
        {
          "internalType": "address",
          "name": "user",
          "type": "address"
        }
      ],
      "name": "balanceOf",
      "outputs": [
        {
          "internalType": "uint256",
          "name": "",
          "type": "uint256"
        }
      ],
      "stateMutability": "view",
      "type": "function"
    },
    {
      "inputs": [
        {
          "internalType": "address",
          "name": "",
          "type": "address"
        }
      ],
      "name": "balances",
      "outputs": [
        {
          "internalType": "uint256",
          "name": "",
          "type": "uint256"
        }
      ],
      "stateMutability": "view",
      "type": "function"
    },
    {
      "inputs": [],
      "name": "cultiv8Agent",
      "outputs": [
        {
          "internalType": "address",
          "name": "",
          "type": "address"
        }
      ],
      "stateMutability": "view",
      "type": "function"
    },
    {
      "inputs": [
        {
          "internalType": "uint256",
          "name": "amount",
          "type": "uint256"
        }
      ],
      "name": "deposit",
      "outputs": [],
      "stateMutability": "nonpayable",
      "type": "function"
    },
    {
      "inputs": [
        {
          "internalType": "address",
          "name": "target",
          "type": "address"
        },
        {
          "internalType": "bytes",
          "name": "data",
          "type": "bytes"
        }
      ],
      "name": "executeDelegated",
      "outputs": [
        {
          "internalType": "bytes",
          "name": "result",
          "type": "bytes"
        }
      ],
      "stateMutability": "nonpayable",
      "type": "function"
    },
    {
      "inputs": [],
      "name": "owner",
      "outputs": [
        {
          "internalType": "address",
          "name": "",
          "type": "address"
        }
      ],
      "stateMutability": "view",
      "type": "function"
    },
    {
      "inputs": [],
      "name": "paused",
      "outputs": [
        {
          "internalType": "bool",
          "name": "",
          "type": "bool"
        }
      ],
      "stateMutability": "view",
      "type": "function"
    },
    {
      "inputs": [],
      "name": "renounceOwnership",
      "outputs": [],
      "stateMutability": "nonpayable",
      "type": "function"
    },
    {
      "inputs": [
        {
          "internalType": "bool",
          "name": "_paused",
          "type": "bool"
        }
      ],
      "name": "setPaused",
      "outputs": [],
      "stateMutability": "nonpayable",
      "type": "function"
    },
    {
      "inputs": [],
      "name": "totalValueLocked",
      "outputs": [
        {
          "internalType": "uint256",
          "name": "",
          "type": "uint256"
        }
      ],
      "stateMutability": "view",
      "type": "function"
    },
    {
      "inputs": [
        {
          "internalType": "address",
          "name": "newOwner",
          "type": "address"
        }
      ],
      "name": "transferOwnership",
      "outputs": [],
      "stateMutability": "nonpayable",
      "type": "function"
    },
    {
      "inputs": [],
      "name": "usdc",
      "outputs": [
        {
          "internalType": "contract IERC20",
          "name": "",
          "type": "address"
        }
      ],
      "stateMutability": "view",
      "type": "function"
    },
    {
      "inputs": [
        {
          "internalType": "uint256",
          "name": "amount",
          "type": "uint256"
        }
      ],
      "name": "withdraw",
      "outputs": [],
      "stateMutability": "nonpayable",
      "type": "function"
    }
  ],
  "bytecode": "0x60c060405234801561001057600080fd5b50604051610df8380380610df883398101604081905261002f91610193565b338061005657604051631e4fbdf760e01b8152600060048201526024015b60405180910390fd5b61005f81610127565b50600180556001600160a01b0382166100ba5760405162461bcd60e51b815260206004820152601460248201527f496e76616c696420555344432061646472657373000000000000000000000000604482015260640161004d565b6001600160a01b0381166101105760405162461bcd60e51b815260206004820152601560248201527f496e76616c6964206167656e7420616464726573730000000000000000000000604482015260640161004d565b6001600160a01b039182166080521660a0526101c6565b600080546001600160a01b038381166001600160a01b0319831681178455604051919092169283917f8be0079c531659141344cd1fd0a4f28419497f9722a3daafe3b4186f6b6457e09190a35050565b80516001600160a01b038116811461018e57600080fd5b919050565b600080604083850312156101a657600080fd5b6101af83610177565b91506101bd60208401610177565b90509250929050565b60805160a051610bf16102076000396000818161014f015261059b01526000818161018e0152818161039b015281816104e401526107700152610bf16000f3fe608060405234801561001057600080fd5b50600436106100ea5760003560e01c8063715018a61161008c578063b6e0141b11610066578063b6e0141b14610222578063e1e158a514610242578063ec18154e1461024c578063f2fde38b1461025457600080fd5b8063715018a6146101f65780638da5cb5b146101fe578063b6b55f251461020f57600080fd5b8063323fb073116100c8578063323fb0731461014a5780633e413bee146101895780635c975abb146101b057806370a08231146101cd57600080fd5b806316c38b3c146100ef57806327e235e3146101045780632e1a7d4d14610137575b600080fd5b6101026100fd3660046109de565b610267565b005b610124610112366004610a1c565b60026020526000908152604090205481565b6040519081526020015b60405180910390f35b610102610145366004610a37565b6102b6565b6101717f000000000000000000000000000000000000000000000000000000000000000081565b6040516001600160a01b03909116815260200161012e565b6101717f000000000000000000000000000000000000000000000000000000000000000081565b6003546101bd9060ff1681565b604051901515815260200161012e565b6101246101db366004610a1c565b6001600160a01b031660009081526002602052604090205490565b610102610404565b6000546001600160a01b0316610171565b61010261021d366004610a37565b610418565b610235610230366004610a50565b61053e565b60405161012e9190610ad3565b6101246298968081565b610124610758565b610102610262366004610a1c565b6107e8565b61026f610823565b6003805460ff19168215159081179091556040519081527f228f455d7bc3d0b24a3a08d7847f391c3e78fc8aeb83acf226b7a96ee162b8ac9060200160405180910390a150565b6102be610850565b600081116103135760405162461bcd60e51b815260206004820152601760248201527f416d6f756e74206d75737420626520706f73697469766500000000000000000060448201526064015b60405180910390fd5b336000908152600260205260409020548111156103695760405162461bcd60e51b8152602060048201526014602482015273496e73756666696369656e742062616c616e636560601b604482015260640161030a565b3360009081526002602052604081208054839290610388908490610b37565b909155506103c290506001600160a01b037f000000000000000000000000000000000000000000000000000000000000000016338361087a565b60405181815233907f7084f5476618d8e60b11ef0d7d3f06914655adb8793e28ff7f018d4c76d505d5906020015b60405180910390a261040160018055565b50565b61040c610823565b61041660006108de565b565b610420610850565b60035460ff16156104685760405162461bcd60e51b815260206004820152601260248201527110dbdb9d1c9858dd081a5cc81c185d5cd95960721b604482015260640161030a565b629896808110156104b25760405162461bcd60e51b8152602060048201526014602482015273416d6f756e742062656c6f77206d696e696d756d60601b604482015260640161030a565b33600090815260026020526040812080548392906104d1908490610b50565b9091555061050c90506001600160a01b037f00000000000000000000000000000000000000000000000000000000000000001633308461092e565b60405181815233907f2da466a7b24304f47e87fa2e1e5a81b9831ce54fec19055ce277ca2f39ba42c4906020016103f0565b6060610548610850565b60035460ff16156105905760405162461bcd60e51b815260206004820152601260248201527110dbdb9d1c9858dd081a5cc81c185d5cd95960721b604482015260640161030a565b336001600160a01b037f000000000000000000000000000000000000000000000000000000000000000016146106085760405162461bcd60e51b815260206004820152601760248201527f4f6e6c79206167656e742063616e2064656c6567617465000000000000000000604482015260640161030a565b6001600160a01b03841661064f5760405162461bcd60e51b815260206004820152600e60248201526d125b9d985b1a59081d185c99d95d60921b604482015260640161030a565b600080856001600160a01b0316858560405161066c929190610b63565b6000604051808303816000865af19150503d80600081146106a9576040519150601f19603f3d011682016040523d82523d6000602084013e6106ae565b606091505b5091509150816106f85760405162461bcd60e51b815260206004820152601560248201527411195b1959d85d19590818d85b1b0819985a5b1959605a1b604482015260640161030a565b856001600160a01b0316336001600160a01b03167f596ab4b6bb69e4974a2333da539249ba60c2fec8cd1b46a978ad883ee7b7db4b878760405161073d929190610b73565b60405180910390a391505061075160018055565b9392505050565b6040516370a0823160e01b81523060048201526000907f00000000000000000000000000000000000000000000000000000000000000006001600160a01b0316906370a0823190602401602060405180830381865afa1580156107bf573d6000803e3d6000fd5b505050506040513d601f19601f820116820180604052508101906107e39190610ba2565b905090565b6107f0610823565b6001600160a01b03811661081a57604051631e4fbdf760e01b81526000600482015260240161030a565b610401816108de565b6000546001600160a01b031633146104165760405163118cdaa760e01b815233600482015260240161030a565b60026001540361087357604051633ee5aeb560e01b815260040160405180910390fd5b6002600155565b6040516001600160a01b038381166024830152604482018390526108d991859182169063a9059cbb906064015b604051602081830303815290604052915060e01b6020820180516001600160e01b03838183161783525050505061096d565b505050565b600080546001600160a01b038381166001600160a01b0319831681178455604051919092169283917f8be0079c531659141344cd1fd0a4f28419497f9722a3daafe3b4186f6b6457e09190a35050565b6040516001600160a01b0384811660248301528381166044830152606482018390526109679186918216906323b872dd906084016108a7565b50505050565b600080602060008451602086016000885af180610990576040513d6000823e3d81fd5b50506000513d915081156109a85780600114156109b5565b6001600160a01b0384163b155b1561096757604051635274afe760e01b81526001600160a01b038516600482015260240161030a565b6000602082840312156109f057600080fd5b8135801515811461075157600080fd5b80356001600160a01b0381168114610a1757600080fd5b919050565b600060208284031215610a2e57600080fd5b61075182610a00565b600060208284031215610a4957600080fd5b5035919050565b600080600060408486031215610a6557600080fd5b610a6e84610a00565b9250602084013567ffffffffffffffff80821115610a8b57600080fd5b818601915086601f830112610a9f57600080fd5b813581811115610aae57600080fd5b876020828501011115610ac057600080fd5b6020830194508093505050509250925092565b600060208083528351808285015260005b81811015610b0057858101830151858201604001528201610ae4565b506000604082860101526040601f19601f8301168501019250505092915050565b634e487b7160e01b600052601160045260246000fd5b81810381811115610b4a57610b4a610b21565b92915050565b80820180821115610b4a57610b4a610b21565b8183823760009101908152919050565b60208152816020820152818360408301376000818301604090810191909152601f909201601f19160101919050565b600060208284031215610bb457600080fd5b505191905056fea2646970667358221220d6da298abafc80fbc089a99626530fdb413ff6457e660a6b8533be85730ad13b64736f6c63430008140033",
  "linkReferences": {},
  "deployedLinkReferences": {}
}